{
  "_format": "hh-sol-artifact-1",
  "contractName": "AffidavitRegistry",
  "sourceName": "contracts/AffidavitRegistry.sol",
  "abi": [
    {
      "anonymous": false,
      "inputs": [
        {
          "indexed": false,
          "internalType": "string",
          "name": "affidavitId",
          "type": "string"
        },
        {
          "indexed": false,
          "internalType": "address",
          "name": "issuer",
          "type": "address"
        },
        {
          "indexed": false,
          "internalType": "uint256",
          "name": "timestamp",
          "type": "uint256"
        }
      ],
      "name": "AffidavitCreated",
      "type": "event"
    },
    {
      "anonymous": false,
      "inputs": [
        {
          "indexed": false,
          "internalType": "string",
          "name": "affidavitId",
          "type": "string"
        },
        {
          "indexed": false,
          "internalType": "address",
          "name": "issuer",
          "type": "address"
        },
        {
          "indexed": false,
          "internalType": "uint256",
          "name": "timestamp",
          "type": "uint256"
        }
      ],
      "name": "AffidavitRevoked",
      "type": "event"
    },
    {
      "inputs": [
        {
          "internalType": "string",
          "name": "_affidavitId",
          "type": "string"
        },
        {
          "internalType": "string",
          "name": "_title",
          "type": "string"
        },
        {
          "internalType": "string",
          "name": "_category",
          "type": "string"
        },
        {
          "internalType": "string",
          "name": "_description",
          "type": "string"
        },
        {
          "internalType": "string",
          "name": "_declaration",
          "type": "string"
        },
        {
          "internalType": "address",
          "name": "_issuer",
          "type": "address"
        },
        {
          "internalType": "address",
          "name": "_seller",
          "type": "address"
        },
        {
          "internalType": "address",
          "name": "_buyer",
          "type": "address"
        },
        {
          "internalType": "string[]",
          "name": "_witnessIds",
          "type": "string[]"
        },
        {
          "internalType": "string",
          "name": "_ipfsHash",
          "type": "string"
        }
      ],
      "name": "createAffidavit",
      "outputs": [],
      "stateMutability": "nonpayable",
      "type": "function"
    },
    {
      "inputs": [
        {
          "internalType": "string",
          "name": "_affidavitId",
          "type": "string"
        }
      ],
      "name": "getAffidavit",
      "outputs": [
        {
          "internalType": "string",
          "name": "affidavitId",
          "type": "string"
        },
        {
          "internalType": "string",
          "name": "title",
          "type": "string"
        },
        {
          "internalType": "string",
          "name": "category",
          "type": "string"
        },
        {
          "internalType": "string",
          "name": "description",
          "type": "string"
        },
        {
          "internalType": "string",
          "name": "declaration",
          "type": "string"
        },
        {
          "internalType": "address",
          "name": "issuer",
          "type": "address"
        },
        {
          "internalType": "address",
          "name": "seller",
          "type": "address"
        },
        {
          "internalType": "address",
          "name": "buyer",
          "type": "address"
        },
        {
          "internalType": "string",
          "name": "ipfsHash",
          "type": "string"
        },
        {
          "internalType": "uint256",
          "name": "timestamp",
          "type": "uint256"
        },
        {
          "internalType": "bool",
          "name": "isActive",
          "type": "bool"
        }
      ],
      "stateMutability": "view",
      "type": "function"
    },
    {
      "inputs": [],
      "name": "getAffidavitCount",
      "outputs": [
        {
          "internalType": "uint256",
          "name": "",
          "type": "uint256"
        }
      ],
      "stateMutability": "view",
      "type": "function"
    },
    {
      "inputs": [
        {
          "internalType": "address",
          "name": "_user",
          "type": "address"
        }
      ],
      "name": "getUserAffidavits",
      "outputs": [
        {
          "internalType": "string[]",
          "name": "",
          "type": "string[]"
        }
      ],
      "stateMutability": "view",
      "type": "function"
    },
    {
      "inputs": [
        {
          "internalType": "string",
          "name": "_affidavitId",
          "type": "string"
        }
      ],
      "name": "getWitnesses",
      "outputs": [
        {
          "internalType": "string[]",
          "name": "",
          "type": "string[]"
        }
      ],
      "stateMutability": "view",
      "type": "function"
    },
    {
      "inputs": [
        {
          "internalType": "string",
          "name": "_affidavitId",
          "type": "string"
        }
      ],
      "name": "revokeAffidavit",
      "outputs": [],
      "stateMutability": "nonpayable",
      "type": "function"
    },
    {
      "inputs": [
        {
          "internalType": "string",
          "name": "_affidavitId",
          "type": "string"
        }
      ],
      "name": "verifyAffidavit",
      "outputs": [
        {
          "internalType": "bool",
          "name": "exists",
          "type": "bool"
        },
        {
          "internalType": "bool",
          "name": "isActive",
          "type": "bool"
        }
      ],
      "stateMutability": "view",
      "type": "function"
    }
  ],
  "bytecode": "0x608060405234801561001057600080fd5b50611e36806100206000396000f3fe608060405234801561001057600080fd5b506004361061007d5760003560e01c8063affa00661161005b578063affa00661461010a578063bfed5d5f1461013b578063dc56c2fd14610157578063f5302d09146101875761007d565b80631bbe57db146100825780632230faec146100bc57806323d8267b146100da575b600080fd5b61009c6004803603810190610097919061127b565b6101a3565b6040516100b39b9a999897969594939291906113b8565b60405180910390f35b6100c4610635565b6040516100d1919061148d565b60405180910390f35b6100f460048036038101906100ef919061127b565b610642565b60405161010191906115b4565b60405180910390f35b610124600480360381019061011f919061127b565b6107ab565b6040516101329291906115d6565b60405180910390f35b6101556004803603810190610150919061127b565b61081f565b005b610171600480360381019061016c919061162b565b610a22565b60405161017e91906115b4565b60405180910390f35b6101a1600480360381019061019c919061173e565b610b3a565b005b6060806060806060600080600060606000806000808d6040516101c6919061191d565b9081526020016040518091039020905060008160000180546101e790611963565b905011610229576040517f08c379a0000000000000000000000000000000000000000000000000000000008152600401610220906119e0565b60405180910390fd5b80600001816001018260020183600301846004018560050160009054906101000a900473ffffffffffffffffffffffffffffffffffffffff168660060160009054906101000a900473ffffffffffffffffffffffffffffffffffffffff168760070160009054906101000a900473ffffffffffffffffffffffffffffffffffffffff168860090189600a01548a600b0160009054906101000a900460ff168a80546102d390611963565b80601f01602080910402602001604051908101604052809291908181526020018280546102ff90611963565b801561034c5780601f106103215761010080835404028352916020019161034c565b820191906000526020600020905b81548152906001019060200180831161032f57829003601f168201915b50505050509a5089805461035f90611963565b80601f016020809104026020016040519081016040528092919081815260200182805461038b90611963565b80156103d85780601f106103ad576101008083540402835291602001916103d8565b820191906000526020600020905b8154815290600101906020018083116103bb57829003601f168201915b505050505099508880546103eb90611963565b80601f016020809104026020016040519081016040528092919081815260200182805461041790611963565b80156104645780601f1061043957610100808354040283529160200191610464565b820191906000526020600020905b81548152906001019060200180831161044757829003601f168201915b5050505050985087805461047790611963565b80601f01602080910402602001604051908101604052809291908181526020018280546104a390611963565b80156104f05780601f106104c5576101008083540402835291602001916104f0565b820191906000526020600020905b8154815290600101906020018083116104d357829003601f168201915b5050505050975086805461050390611963565b80601f016020809104026020016040519081016040528092919081815260200182805461052f90611963565b801561057c5780601f106105515761010080835404028352916020019161057c565b820191906000526020600020905b81548152906001019060200180831161055f57829003601f168201915b5050505050965082805461058f90611963565b80601f01602080910402602001604051908101604052809291908181526020018280546105bb90611963565b80156106085780601f106105dd57610100808354040283529160200191610608565b820191906000526020600020905b8154815290600101906020018083116105eb57829003601f168201915b505050505092509b509b509b509b509b509b509b509b509b509b509b505091939597999b90929496989a50565b6000600280549050905090565b606060008083604051610655919061191d565b9081526020016040518091039020600001805461067190611963565b9050116106b3576040517f08c379a00000000000000000000000000000000000000000000000000000000081526004016106aa906119e0565b60405180910390fd5b6000826040516106c3919061191d565b9081526020016040518091039020600801805480602002602001604051908101604052809291908181526020016000905b828210156107a057838290600052602060002001805461071390611963565b80601f016020809104026020016040519081016040528092919081815260200182805461073f90611963565b801561078c5780601f106107615761010080835404028352916020019161078c565b820191906000526020600020905b81548152906001019060200180831161076f57829003601f168201915b5050505050815260200190600101906106f4565b505050509050919050565b600080600080846040516107bf919061191d565b908152602001604051809103902060000180546107db90611963565b905011915081801561081857506000836040516107f8919061191d565b9081526020016040518091039020600b0160009054906101000a900460ff165b9050915091565b60008082604051610830919061191d565b9081526020016040518091039020600001805461084c90611963565b90501161088e576040517f08c379a0000000000000000000000000000000000000000000000000000000008152600401610885906119e0565b60405180910390fd5b3373ffffffffffffffffffffffffffffffffffffffff166000826040516108b5919061191d565b908152602001604051809103902060050160009054906101000a900473ffffffffffffffffffffffffffffffffffffffff1673ffffffffffffffffffffffffffffffffffffffff161461093d576040517f08c379a000000000000000000000000000000000000000000000000000000000815260040161093490611a4c565b60405180910390fd5b60008160405161094d919061191d565b9081526020016040518091039020600b0160009054906101000a900460ff166109ab576040517f08c379a00000000000000000000000000000000000000000000000000000000081526004016109a290611ab8565b60405180910390fd5b600080826040516109bc919061191d565b9081526020016040518091039020600b0160006101000a81548160ff0219169083151502179055507f8243a5b8db79a9ec3a9ce599ca26a5515625db20c49d55183ce6148618586ad6813342604051610a1793929190611ad8565b60405180910390a150565b6060600160008373ffffffffffffffffffffffffffffffffffffffff1673ffffffffffffffffffffffffffffffffffffffff168152602001908152602001600020805480602002602001604051908101604052809291908181526020016000905b82821015610b2f578382906000526020600020018054610aa290611963565b80601f0160208091040260200160405190810160405280929190818152602001828054610ace90611963565b8015610b1b5780601f10610af057610100808354040283529160200191610b1b565b820191906000526020600020905b815481529060010190602001808311610afe57829003601f168201915b505050505081526020019060010190610a83565b505050509050919050565b6000808b604051610b4b919061191d565b90815260200160405180910390206000018054610b6790611963565b905014610ba9576040517f08c379a0000000000000000000000000000000000000000000000000000000008152600401610ba090611b62565b60405180910390fd5b60006040518061018001604052808c81526020018b81526020018a81526020018981526020018881526020018773ffffffffffffffffffffffffffffffffffffffff1681526020018673ffffffffffffffffffffffffffffffffffffffff1681526020018573ffffffffffffffffffffffffffffffffffffffff1681526020018481526020018381526020014281526020016001151581525090508060008c604051610c55919061191d565b90815260200160405180910390206000820151816000019081610c789190611d2e565b506020820151816001019081610c8e9190611d2e565b506040820151816002019081610ca49190611d2e565b506060820151816003019081610cba9190611d2e565b506080820151816004019081610cd09190611d2e565b5060a08201518160050160006101000a81548173ffffffffffffffffffffffffffffffffffffffff021916908373ffffffffffffffffffffffffffffffffffffffff16021790555060c08201518160060160006101000a81548173ffffffffffffffffffffffffffffffffffffffff021916908373ffffffffffffffffffffffffffffffffffffffff16021790555060e08201518160070160006101000a81548173ffffffffffffffffffffffffffffffffffffffff021916908373ffffffffffffffffffffffffffffffffffffffff160217905550610100820151816008019080519060200190610dc3929190611047565b50610120820151816009019081610dda9190611d2e565b5061014082015181600a015561016082015181600b0160006101000a81548160ff02191690831515021790555090505060028b908060018154018082558091505060019003906000526020600020016000909190919091509081610e3e9190611d2e565b50600160008773ffffffffffffffffffffffffffffffffffffffff1673ffffffffffffffffffffffffffffffffffffffff1681526020019081526020016000208b908060018154018082558091505060019003906000526020600020016000909190919091509081610eb09190611d2e565b50600073ffffffffffffffffffffffffffffffffffffffff168573ffffffffffffffffffffffffffffffffffffffff1614610f5857600160008673ffffffffffffffffffffffffffffffffffffffff1673ffffffffffffffffffffffffffffffffffffffff1681526020019081526020016000208b908060018154018082558091505060019003906000526020600020016000909190919091509081610f569190611d2e565b505b600073ffffffffffffffffffffffffffffffffffffffff168473ffffffffffffffffffffffffffffffffffffffff1614610fff57600160008573ffffffffffffffffffffffffffffffffffffffff1673ffffffffffffffffffffffffffffffffffffffff1681526020019081526020016000208b908060018154018082558091505060019003906000526020600020016000909190919091509081610ffd9190611d2e565b505b7faad66bf4bd607e4a7b173367ae3cf986a4657522184691ea8747a6079ca100de8b874260405161103293929190611ad8565b60405180910390a15050505050505050505050565b82805482825590600052602060002090810192821561108f579160200282015b8281111561108e57825182908161107e9190611d2e565b5091602001919060010190611067565b5b50905061109c91906110a0565b5090565b5b808211156110c057600081816110b791906110c4565b506001016110a1565b5090565b5080546110d090611963565b6000825580601f106110e25750611101565b601f0160209004906000526020600020908101906111009190611104565b5b50565b5b8082111561111d576000816000905550600101611105565b5090565b6000604051905090565b600080fd5b600080fd5b600080fd5b600080fd5b6000601f19601f8301169050919050565b7f4e487b7100000000000000000000000000000000000000000000000000000000600052604160045260246000fd5b6111888261113f565b810181811067ffffffffffffffff821117156111a7576111a6611150565b5b80604052505050565b60006111ba611121565b90506111c6828261117f565b919050565b600067ffffffffffffffff8211156111e6576111e5611150565b5b6111ef8261113f565b9050602081019050919050565b82818337600083830152505050565b600061121e611219846111cb565b6111b0565b90508281526020810184848401111561123a5761123961113a565b5b6112458482856111fc565b509392505050565b600082601f83011261126257611261611135565b5b813561127284826020860161120b565b91505092915050565b6000602082840312156112915761129061112b565b5b600082013567ffffffffffffffff8111156112af576112ae611130565b5b6112bb8482850161124d565b91505092915050565b600081519050919050565b600082825260208201905092915050565b60005b838110156112fe5780820151818401526020810190506112e3565b60008484015250505050565b6000611315826112c4565b61131f81856112cf565b935061132f8185602086016112e0565b6113388161113f565b840191505092915050565b600073ffffffffffffffffffffffffffffffffffffffff82169050919050565b600061136e82611343565b9050919050565b61137e81611363565b82525050565b6000819050919050565b61139781611384565b82525050565b60008115159050919050565b6113b28161139d565b82525050565b60006101608201905081810360008301526113d3818e61130a565b905081810360208301526113e7818d61130a565b905081810360408301526113fb818c61130a565b9050818103606083015261140f818b61130a565b90508181036080830152611423818a61130a565b905061143260a0830189611375565b61143f60c0830188611375565b61144c60e0830187611375565b81810361010083015261145f818661130a565b905061146f61012083018561138e565b61147d6101408301846113a9565b9c9b505050505050505050505050565b60006020820190506114a2600083018461138e565b92915050565b600081519050919050565b600082825260208201905092915050565b6000819050602082019050919050565b600082825260208201905092915050565b60006114f0826112c4565b6114fa81856114d4565b935061150a8185602086016112e0565b6115138161113f565b840191505092915050565b600061152a83836114e5565b905092915050565b6000602082019050919050565b600061154a826114a8565b61155481856114b3565b935083602082028501611566856114c4565b8060005b858110156115a25784840389528151611583858261151e565b945061158e83611532565b925060208a0199505060018101905061156a565b50829750879550505050505092915050565b600060208201905081810360008301526115ce818461153f565b905092915050565b60006040820190506115eb60008301856113a9565b6115f860208301846113a9565b9392505050565b61160881611363565b811461161357600080fd5b50565b600081359050611625816115ff565b92915050565b6000602082840312156116415761164061112b565b5b600061164f84828501611616565b91505092915050565b600067ffffffffffffffff82111561167357611672611150565b5b602082029050602081019050919050565b600080fd5b600061169c61169784611658565b6111b0565b905080838252602082019050602084028301858111156116bf576116be611684565b5b835b8181101561170657803567ffffffffffffffff8111156116e4576116e3611135565b5b8086016116f1898261124d565b855260208501945050506020810190506116c1565b5050509392505050565b600082601f83011261172557611724611135565b5b8135611735848260208601611689565b91505092915050565b6000806000806000806000806000806101408b8d0312156117625761176161112b565b5b60008b013567ffffffffffffffff8111156117805761177f611130565b5b61178c8d828e0161124d565b9a505060208b013567ffffffffffffffff8111156117ad576117ac611130565b5b6117b98d828e0161124d565b99505060408b013567ffffffffffffffff8111156117da576117d9611130565b5b6117e68d828e0161124d565b98505060608b013567ffffffffffffffff81111561180757611806611130565b5b6118138d828e0161124d565b97505060808b013567ffffffffffffffff81111561183457611833611130565b5b6118408d828e0161124d565b96505060a06118518d828e01611616565b95505060c06118628d828e01611616565b94505060e06118738d828e01611616565b9350506101008b013567ffffffffffffffff81111561189557611894611130565b5b6118a18d828e01611710565b9250506101208b013567ffffffffffffffff8111156118c3576118c2611130565b5b6118cf8d828e0161124d565b9150509295989b9194979a5092959850565b600081905092915050565b60006118f7826112c4565b61190181856118e1565b93506119118185602086016112e0565b80840191505092915050565b600061192982846118ec565b915081905092915050565b7f4e487b7100000000000000000000000000000000000000000000000000000000600052602260045260246000fd5b6000600282049050600182168061197b57607f821691505b60208210810361198e5761198d611934565b5b50919050565b7f41666669646176697420646f6573206e6f742065786973740000000000000000600082015250565b60006119ca6018836112cf565b91506119d582611994565b602082019050919050565b600060208201905081810360008301526119f9816119bd565b9050919050565b7f4f6e6c79206973737565722063616e207265766f6b6500000000000000000000600082015250565b6000611a366016836112cf565b9150611a4182611a00565b602082019050919050565b60006020820190508181036000830152611a6581611a29565b9050919050565b7f41666669646176697420697320616c7265616479207265766f6b656400000000600082015250565b6000611aa2601c836112cf565b9150611aad82611a6c565b602082019050919050565b60006020820190508181036000830152611ad181611a95565b9050919050565b60006060820190508181036000830152611af2818661130a565b9050611b016020830185611375565b611b0e604083018461138e565b949350505050565b7f41666669646176697420616c7265616479206578697374730000000000000000600082015250565b6000611b4c6018836112cf565b9150611b5782611b16565b602082019050919050565b60006020820190508181036000830152611b7b81611b3f565b9050919050565b60008190508160005260206000209050919050565b60006020601f8301049050919050565b600082821b905092915050565b600060088302611be47fffffffffffffffffffffffffffffffffffffffffffffffffffffffffffffffff82611ba7565b611bee8683611ba7565b95508019841693508086168417925050509392505050565b6000819050919050565b6000611c2b611c26611c2184611384565b611c06565b611384565b9050919050565b6000819050919050565b611c4583611c10565b611c59611c5182611c32565b848454611bb4565b825550505050565b600090565b611c6e611c61565b611c79818484611c3c565b505050565b5b81811015611c9d57611c92600082611c66565b600181019050611c7f565b5050565b601f821115611ce257611cb381611b82565b611cbc84611b97565b81016020851015611ccb578190505b611cdf611cd785611b97565b830182611c7e565b50505b505050565b600082821c905092915050565b6000611d0560001984600802611ce7565b1980831691505092915050565b6000611d1e8383611cf4565b9150826002028217905092915050565b611d37826112c4565b67ffffffffffffffff811115611d5057611d4f611150565b5b611d5a8254611963565b611d65828285611ca1565b600060209050601f831160018114611d985760008415611d86578287015190505b611d908582611d12565b865550611df8565b601f198416611da686611b82565b60005b82811015611dce57848901518255600182019150602085019450602081019050611da9565b86831015611deb5784890151611de7601f891682611cf4565b8355505b6001600288020188555050505b50505050505056fea2646970667358221220c58143888330ea81b97a856c0fcd730be88ca1417f50477206938a8299742fde64736f6c63430008130033",
  "linkReferences": {},
  "deployedLinkReferences": {}
}